{
	"Switch.sol": {
		"Switch": {
			"abi": [
				{
					"inputs": [
						{
							"internalType": "address",
							"name": "_beneficiary",
							"type": "address"
						}
					],
					"stateMutability": "nonpayable",
					"type": "constructor"
				},
				{
					"anonymous": false,
					"inputs": [
						{
							"indexed": true,
							"internalType": "address",
							"name": "beneficiary",
							"type": "address"
						},
						{
							"indexed": false,
							"internalType": "uint256",
							"name": "amount",
							"type": "uint256"
						}
					],
					"name": "Sent",
					"type": "event"
				},
				{
					"anonymous": false,
					"inputs": [
						{
							"indexed": true,
							"internalType": "address",
							"name": "owner",
							"type": "address"
						},
						{
							"indexed": false,
							"internalType": "uint256",
							"name": "blockNumber",
							"type": "uint256"
						}
					],
					"name": "StillAlive",
					"type": "event"
				},
				{
					"inputs": [],
					"name": "beneficiary",
					"outputs": [
						{
							"internalType": "address",
							"name": "",
							"type": "address"
						}
					],
					"stateMutability": "view",
					"type": "function"
				},
				{
					"inputs": [],
					"name": "check_and_transfer",
					"outputs": [],
					"stateMutability": "nonpayable",
					"type": "function"
				},
				{
					"inputs": [],
					"name": "lastAliveBlock",
					"outputs": [
						{
							"internalType": "uint256",
							"name": "",
							"type": "uint256"
						}
					],
					"stateMutability": "view",
					"type": "function"
				},
				{
					"inputs": [],
					"name": "owner",
					"outputs": [
						{
							"internalType": "address",
							"name": "",
							"type": "address"
						}
					],
					"stateMutability": "view",
					"type": "function"
				},
				{
					"inputs": [],
					"name": "still_alive",
					"outputs": [],
					"stateMutability": "nonpayable",
					"type": "function"
				},
				{
					"inputs": [],
					"name": "thresholdBlocks",
					"outputs": [
						{
							"internalType": "uint256",
							"name": "",
							"type": "uint256"
						}
					],
					"stateMutability": "view",
					"type": "function"
				},
				{
					"stateMutability": "payable",
					"type": "receive"
				}
			],
			"devdoc": {
				"kind": "dev",
				"methods": {},
				"version": 1
			},
			"evm": {
				"assembly": "    /* \"Switch.sol\":57:1213  contract Switch {... */\n  mstore(0x40, 0x80)\n    /* \"Switch.sol\":205:207  10 */\n  0x0a\n    /* \"Switch.sol\":172:207  uint256 public thresholdBlocks = 10 */\n  0x03\n  sstore\n    /* \"Switch.sol\":341:568  constructor(address _beneficiary) {... */\n  callvalue\n  dup1\n  iszero\n  tag_1\n  jumpi\n  0x00\n  dup1\n  revert\ntag_1:\n  pop\n  mload(0x40)\n  sub(codesize, bytecodeSize)\n  dup1\n  bytecodeSize\n  dup4\n  codecopy\n  dup2\n  dup2\n  add\n  0x40\n  mstore\n  dup2\n  add\n  swap1\n  tag_2\n  swap2\n  swap1\n  tag_3\n  jump\t// in\ntag_2:\n    /* \"Switch.sol\":417:418  0 */\n  0x00\n    /* \"Switch.sol\":393:419  _beneficiary != address(0) */\n  0xffffffffffffffffffffffffffffffffffffffff\n  and\n    /* \"Switch.sol\":393:405  _beneficiary */\n  dup2\n    /* \"Switch.sol\":393:419  _beneficiary != address(0) */\n  0xffffffffffffffffffffffffffffffffffffffff\n  and\n  sub\n    /* \"Switch.sol\":385:458  require(_beneficiary != address(0), \"Beneficiary address cannot be zero\") */\n  tag_6\n  jumpi\n  mload(0x40)\n  0x08c379a000000000000000000000000000000000000000000000000000000000\n  dup2\n  mstore\n  0x04\n  add\n  tag_7\n  swap1\n  tag_8\n  jump\t// in\ntag_7:\n  mload(0x40)\n  dup1\n  swap2\n  sub\n  swap1\n  revert\ntag_6:\n    /* \"Switch.sol\":476:486  msg.sender */\n  caller\n    /* \"Switch.sol\":468:473  owner */\n  0x00\n  dup1\n    /* \"Switch.sol\":468:486  owner = msg.sender */\n  0x0100\n  exp\n  dup2\n  sload\n  dup2\n  0xffffffffffffffffffffffffffffffffffffffff\n  mul\n  not\n  and\n  swap1\n  dup4\n  0xffffffffffffffffffffffffffffffffffffffff\n  and\n  mul\n  or\n  swap1\n  sstore\n  pop\n    /* \"Switch.sol\":510:522  _beneficiary */\n  dup1\n    /* \"Switch.sol\":496:507  beneficiary */\n  0x01\n  0x00\n    /* \"Switch.sol\":496:522  beneficiary = _beneficiary */\n  0x0100\n  exp\n  dup2\n  sload\n  dup2\n  0xffffffffffffffffffffffffffffffffffffffff\n  mul\n  not\n  and\n  swap1\n  dup4\n  0xffffffffffffffffffffffffffffffffffffffff\n  and\n  mul\n  or\n  swap1\n  sstore\n  pop\n    /* \"Switch.sol\":549:561  block.number */\n  number\n    /* \"Switch.sol\":532:546  lastAliveBlock */\n  0x02\n    /* \"Switch.sol\":532:561  lastAliveBlock = block.number */\n  dup2\n  swap1\n  sstore\n  pop\n    /* \"Switch.sol\":341:568  constructor(address _beneficiary) {... */\n  pop\n    /* \"Switch.sol\":57:1213  contract Switch {... */\n  jump(tag_9)\n    /* \"#utility.yul\":88:205   */\ntag_11:\n    /* \"#utility.yul\":197:198   */\n  0x00\n    /* \"#utility.yul\":194:195   */\n  dup1\n    /* \"#utility.yul\":187:199   */\n  revert\n    /* \"#utility.yul\":334:460   */\ntag_13:\n    /* \"#utility.yul\":371:378   */\n  0x00\n    /* \"#utility.yul\":411:453   */\n  0xffffffffffffffffffffffffffffffffffffffff\n    /* \"#utility.yul\":404:409   */\n  dup3\n    /* \"#utility.yul\":400:454   */\n  and\n    /* \"#utility.yul\":389:454   */\n  swap1\n  pop\n    /* \"#utility.yul\":334:460   */\n  swap2\n  swap1\n  pop\n  jump\t// out\n    /* \"#utility.yul\":466:562   */\ntag_14:\n    /* \"#utility.yul\":503:510   */\n  0x00\n    /* \"#utility.yul\":532:556   */\n  tag_26\n    /* \"#utility.yul\":550:555   */\n  dup3\n    /* \"#utility.yul\":532:556   */\n  tag_13\n  jump\t// in\ntag_26:\n    /* \"#utility.yul\":521:556   */\n  swap1\n  pop\n    /* \"#utility.yul\":466:562   */\n  swap2\n  swap1\n  pop\n  jump\t// out\n    /* \"#utility.yul\":568:690   */\ntag_15:\n    /* \"#utility.yul\":641:665   */\n  tag_28\n    /* \"#utility.yul\":659:664   */\n  dup2\n    /* \"#utility.yul\":641:665   */\n  tag_14\n  jump\t// in\ntag_28:\n    /* \"#utility.yul\":634:639   */\n  dup2\n    /* \"#utility.yul\":631:666   */\n  eq\n    /* \"#utility.yul\":621:684   */\n  tag_29\n  jumpi\n    /* \"#utility.yul\":680:681   */\n  0x00\n    /* \"#utility.yul\":677:678   */\n  dup1\n    /* \"#utility.yul\":670:682   */\n  revert\n    /* \"#utility.yul\":621:684   */\ntag_29:\n    /* \"#utility.yul\":568:690   */\n  pop\n  jump\t// out\n    /* \"#utility.yul\":696:839   */\ntag_16:\n    /* \"#utility.yul\":753:758   */\n  0x00\n    /* \"#utility.yul\":784:790   */\n  dup2\n    /* \"#utility.yul\":778:791   */\n  mload\n    /* \"#utility.yul\":769:791   */\n  swap1\n  pop\n    /* \"#utility.yul\":800:833   */\n  tag_31\n    /* \"#utility.yul\":827:832   */\n  dup2\n    /* \"#utility.yul\":800:833   */\n  tag_15\n  jump\t// in\ntag_31:\n    /* \"#utility.yul\":696:839   */\n  swap3\n  swap2\n  pop\n  pop\n  jump\t// out\n    /* \"#utility.yul\":845:1196   */\ntag_3:\n    /* \"#utility.yul\":915:921   */\n  0x00\n    /* \"#utility.yul\":964:966   */\n  0x20\n    /* \"#utility.yul\":952:961   */\n  dup3\n    /* \"#utility.yul\":943:950   */\n  dup5\n    /* \"#utility.yul\":939:962   */\n  sub\n    /* \"#utility.yul\":935:967   */\n  slt\n    /* \"#utility.yul\":932:1051   */\n  iszero\n  tag_33\n  jumpi\n    /* \"#utility.yul\":970:1049   */\n  tag_34\n  tag_11\n  jump\t// in\ntag_34:\n    /* \"#utility.yul\":932:1051   */\ntag_33:\n    /* \"#utility.yul\":1090:1091   */\n  0x00\n    /* \"#utility.yul\":1115:1179   */\n  tag_35\n    /* \"#utility.yul\":1171:1178   */\n  dup5\n    /* \"#utility.yul\":1162:1168   */\n  dup3\n    /* \"#utility.yul\":1151:1160   */\n  dup6\n    /* \"#utility.yul\":1147:1169   */\n  add\n    /* \"#utility.yul\":1115:1179   */\n  tag_16\n  jump\t// in\ntag_35:\n    /* \"#utility.yul\":1105:1179   */\n  swap2\n  pop\n    /* \"#utility.yul\":1061:1189   */\n  pop\n    /* \"#utility.yul\":845:1196   */\n  swap3\n  swap2\n  pop\n  pop\n  jump\t// out\n    /* \"#utility.yul\":1202:1371   */\ntag_17:\n    /* \"#utility.yul\":1286:1297   */\n  0x00\n    /* \"#utility.yul\":1320:1326   */\n  dup3\n    /* \"#utility.yul\":1315:1318   */\n  dup3\n    /* \"#utility.yul\":1308:1327   */\n  mstore\n    /* \"#utility.yul\":1360:1364   */\n  0x20\n    /* \"#utility.yul\":1355:1358   */\n  dup3\n    /* \"#utility.yul\":1351:1365   */\n  add\n    /* \"#utility.yul\":1336:1365   */\n  swap1\n  pop\n    /* \"#utility.yul\":1202:1371   */\n  swap3\n  swap2\n  pop\n  pop\n  jump\t// out\n    /* \"#utility.yul\":1377:1598   */\ntag_18:\n    /* \"#utility.yul\":1517:1551   */\n  0x42656e656669636961727920616464726573732063616e6e6f74206265207a65\n    /* \"#utility.yul\":1513:1514   */\n  0x00\n    /* \"#utility.yul\":1505:1511   */\n  dup3\n    /* \"#utility.yul\":1501:1515   */\n  add\n    /* \"#utility.yul\":1494:1552   */\n  mstore\n    /* \"#utility.yul\":1586:1590   */\n  0x726f000000000000000000000000000000000000000000000000000000000000\n    /* \"#utility.yul\":1581:1583   */\n  0x20\n    /* \"#utility.yul\":1573:1579   */\n  dup3\n    /* \"#utility.yul\":1569:1584   */\n  add\n    /* \"#utility.yul\":1562:1591   */\n  mstore\n    /* \"#utility.yul\":1377:1598   */\n  pop\n  jump\t// out\n    /* \"#utility.yul\":1604:1970   */\ntag_19:\n    /* \"#utility.yul\":1746:1749   */\n  0x00\n    /* \"#utility.yul\":1767:1834   */\n  tag_39\n    /* \"#utility.yul\":1831:1833   */\n  0x22\n    /* \"#utility.yul\":1826:1829   */\n  dup4\n    /* \"#utility.yul\":1767:1834   */\n  tag_17\n  jump\t// in\ntag_39:\n    /* \"#utility.yul\":1760:1834   */\n  swap2\n  pop\n    /* \"#utility.yul\":1843:1936   */\n  tag_40\n    /* \"#utility.yul\":1932:1935   */\n  dup3\n    /* \"#utility.yul\":1843:1936   */\n  tag_18\n  jump\t// in\ntag_40:\n    /* \"#utility.yul\":1961:1963   */\n  0x40\n    /* \"#utility.yul\":1956:1959   */\n  dup3\n    /* \"#utility.yul\":1952:1964   */\n  add\n    /* \"#utility.yul\":1945:1964   */\n  swap1\n  pop\n    /* \"#utility.yul\":1604:1970   */\n  swap2\n  swap1\n  pop\n  jump\t// out\n    /* \"#utility.yul\":1976:2395   */\ntag_8:\n    /* \"#utility.yul\":2142:2146   */\n  0x00\n    /* \"#utility.yul\":2180:2182   */\n  0x20\n    /* \"#utility.yul\":2169:2178   */\n  dup3\n    /* \"#utility.yul\":2165:2183   */\n  add\n    /* \"#utility.yul\":2157:2183   */\n  swap1\n  pop\n    /* \"#utility.yul\":2229:2238   */\n  dup2\n    /* \"#utility.yul\":2223:2227   */\n  dup2\n    /* \"#utility.yul\":2219:2239   */\n  sub\n    /* \"#utility.yul\":2215:2216   */\n  0x00\n    /* \"#utility.yul\":2204:2213   */\n  dup4\n    /* \"#utility.yul\":2200:2217   */\n  add\n    /* \"#utility.yul\":2193:2240   */\n  mstore\n    /* \"#utility.yul\":2257:2388   */\n  tag_42\n    /* \"#utility.yul\":2383:2387   */\n  dup2\n    /* \"#utility.yul\":2257:2388   */\n  tag_19\n  jump\t// in\ntag_42:\n    /* \"#utility.yul\":2249:2388   */\n  swap1\n  pop\n    /* \"#utility.yul\":1976:2395   */\n  swap2\n  swap1\n  pop\n  jump\t// out\n    /* \"Switch.sol\":57:1213  contract Switch {... */\ntag_9:\n  dataSize(sub_0)\n  dup1\n  dataOffset(sub_0)\n  0x00\n  codecopy\n  0x00\n  return\nstop\n\nsub_0: assembly {\n        /* \"Switch.sol\":57:1213  contract Switch {... */\n      mstore(0x40, 0x80)\n      jumpi(tag_1, lt(calldatasize, 0x04))\n      shr(0xe0, calldataload(0x00))\n      dup1\n      0x0f50a7e9\n      eq\n      tag_3\n      jumpi\n      dup1\n      0x38af3eed\n      eq\n      tag_4\n      jumpi\n      dup1\n      0x3d58225a\n      eq\n      tag_5\n      jumpi\n      dup1\n      0x8da5cb5b\n      eq\n      tag_6\n      jumpi\n      dup1\n      0xe6627db6\n      eq\n      tag_7\n      jumpi\n      dup1\n      0xeec93f09\n      eq\n      tag_8\n      jumpi\n      jump(tag_2)\n    tag_1:\n      jumpi(tag_2, calldatasize)\n      stop\n    tag_2:\n      0x00\n      dup1\n      revert\n        /* \"Switch.sol\":753:1177  function check_and_transfer() external {... */\n    tag_3:\n      callvalue\n      dup1\n      iszero\n      tag_11\n      jumpi\n      0x00\n      dup1\n      revert\n    tag_11:\n      pop\n      tag_12\n      tag_13\n      jump\t// in\n    tag_12:\n      stop\n        /* \"Switch.sol\":105:131  address public beneficiary */\n    tag_4:\n      callvalue\n      dup1\n      iszero\n      tag_14\n      jumpi\n      0x00\n      dup1\n      revert\n    tag_14:\n      pop\n      tag_15\n      tag_16\n      jump\t// in\n    tag_15:\n      mload(0x40)\n      tag_17\n      swap2\n      swap1\n      tag_18\n      jump\t// in\n    tag_17:\n      mload(0x40)\n      dup1\n      swap2\n      sub\n      swap1\n      return\n        /* \"Switch.sol\":573:748  function still_alive() external {... */\n    tag_5:\n      callvalue\n      dup1\n      iszero\n      tag_19\n      jumpi\n      0x00\n      dup1\n      revert\n    tag_19:\n      pop\n      tag_20\n      tag_21\n      jump\t// in\n    tag_20:\n      stop\n        /* \"Switch.sol\":79:99  address public owner */\n    tag_6:\n      callvalue\n      dup1\n      iszero\n      tag_22\n      jumpi\n      0x00\n      dup1\n      revert\n    tag_22:\n      pop\n      tag_23\n      tag_24\n      jump\t// in\n    tag_23:\n      mload(0x40)\n      tag_25\n      swap2\n      swap1\n      tag_18\n      jump\t// in\n    tag_25:\n      mload(0x40)\n      dup1\n      swap2\n      sub\n      swap1\n      return\n        /* \"Switch.sol\":137:166  uint256 public lastAliveBlock */\n    tag_7:\n      callvalue\n      dup1\n      iszero\n      tag_26\n      jumpi\n      0x00\n      dup1\n      revert\n    tag_26:\n      pop\n      tag_27\n      tag_28\n      jump\t// in\n    tag_27:\n      mload(0x40)\n      tag_29\n      swap2\n      swap1\n      tag_30\n      jump\t// in\n    tag_29:\n      mload(0x40)\n      dup1\n      swap2\n      sub\n      swap1\n      return\n        /* \"Switch.sol\":172:207  uint256 public thresholdBlocks = 10 */\n    tag_8:\n      callvalue\n      dup1\n      iszero\n      tag_31\n      jumpi\n      0x00\n      dup1\n      revert\n    tag_31:\n      pop\n      tag_32\n      tag_33\n      jump\t// in\n    tag_32:\n      mload(0x40)\n      tag_34\n      swap2\n      swap1\n      tag_30\n      jump\t// in\n    tag_34:\n      mload(0x40)\n      dup1\n      swap2\n      sub\n      swap1\n      return\n        /* \"Switch.sol\":753:1177  function check_and_transfer() external {... */\n    tag_13:\n        /* \"Switch.sol\":842:857  thresholdBlocks */\n      sload(0x03)\n        /* \"Switch.sol\":825:839  lastAliveBlock */\n      sload(0x02)\n        /* \"Switch.sol\":825:857  lastAliveBlock + thresholdBlocks */\n      tag_36\n      swap2\n      swap1\n      tag_37\n      jump\t// in\n    tag_36:\n        /* \"Switch.sol\":810:822  block.number */\n      number\n        /* \"Switch.sol\":810:857  block.number > lastAliveBlock + thresholdBlocks */\n      gt\n        /* \"Switch.sol\":802:873  require(block.number > lastAliveBlock + thresholdBlocks, \"owner alive\") */\n      tag_38\n      jumpi\n      mload(0x40)\n      0x08c379a000000000000000000000000000000000000000000000000000000000\n      dup2\n      mstore\n      0x04\n      add\n      tag_39\n      swap1\n      tag_40\n      jump\t// in\n    tag_39:\n      mload(0x40)\n      dup1\n      swap2\n      sub\n      swap1\n      revert\n    tag_38:\n        /* \"Switch.sol\":883:906  uint256 contractBalance */\n      0x00\n        /* \"Switch.sol\":909:930  address(this).balance */\n      selfbalance\n        /* \"Switch.sol\":883:930  uint256 contractBalance = address(this).balance */\n      swap1\n      pop\n        /* \"Switch.sol\":966:967  0 */\n      0x00\n        /* \"Switch.sol\":948:963  contractBalance */\n      dup2\n        /* \"Switch.sol\":948:967  contractBalance > 0 */\n      gt\n        /* \"Switch.sol\":940:988  require(contractBalance > 0, \"no transfer done\") */\n      tag_41\n      jumpi\n      mload(0x40)\n      0x08c379a000000000000000000000000000000000000000000000000000000000\n      dup2\n      mstore\n      0x04\n      add\n      tag_42\n      swap1\n      tag_43\n      jump\t// in\n    tag_42:\n      mload(0x40)\n      dup1\n      swap2\n      sub\n      swap1\n      revert\n    tag_41:\n        /* \"Switch.sol\":999:1011  bool success */\n      0x00\n        /* \"Switch.sol\":1017:1028  beneficiary */\n      0x01\n      0x00\n      swap1\n      sload\n      swap1\n      0x0100\n      exp\n      swap1\n      div\n      0xffffffffffffffffffffffffffffffffffffffff\n      and\n        /* \"Switch.sol\":1017:1033  beneficiary.call */\n      0xffffffffffffffffffffffffffffffffffffffff\n      and\n        /* \"Switch.sol\":1041:1056  contractBalance */\n      dup3\n        /* \"Switch.sol\":1017:1061  beneficiary.call{value: contractBalance}(\"\") */\n      mload(0x40)\n      tag_44\n      swap1\n      tag_45\n      jump\t// in\n    tag_44:\n      0x00\n      mload(0x40)\n      dup1\n      dup4\n      sub\n      dup2\n      dup6\n      dup8\n      gas\n      call\n      swap3\n      pop\n      pop\n      pop\n      returndatasize\n      dup1\n      0x00\n      dup2\n      eq\n      tag_48\n      jumpi\n      mload(0x40)\n      swap2\n      pop\n      and(add(returndatasize, 0x3f), not(0x1f))\n      dup3\n      add\n      0x40\n      mstore\n      returndatasize\n      dup3\n      mstore\n      returndatasize\n      0x00\n      0x20\n      dup5\n      add\n      returndatacopy\n      jump(tag_47)\n    tag_48:\n      0x60\n      swap2\n      pop\n    tag_47:\n      pop\n        /* \"Switch.sol\":998:1061  (bool success, ) = beneficiary.call{value: contractBalance}(\"\") */\n      pop\n      swap1\n      pop\n        /* \"Switch.sol\":1079:1086  success */\n      dup1\n        /* \"Switch.sol\":1071:1121  require(success, \"Transfer to beneficiary failed\") */\n      tag_49\n      jumpi\n      mload(0x40)\n      0x08c379a000000000000000000000000000000000000000000000000000000000\n      dup2\n      mstore\n      0x04\n      add\n      tag_50\n      swap1\n      tag_51\n      jump\t// in\n    tag_50:\n      mload(0x40)\n      dup1\n      swap2\n      sub\n      swap1\n      revert\n    tag_49:\n        /* \"Switch.sol\":1141:1152  beneficiary */\n      0x01\n      0x00\n      swap1\n      sload\n      swap1\n      0x0100\n      exp\n      swap1\n      div\n      0xffffffffffffffffffffffffffffffffffffffff\n      and\n        /* \"Switch.sol\":1136:1170  Sent(beneficiary, contractBalance) */\n      0xffffffffffffffffffffffffffffffffffffffff\n      and\n      0x510ffb4dcab972ae9d2007a58e13f1b0881776d23cd8f5cc32f8c5be2dbf70d2\n        /* \"Switch.sol\":1154:1169  contractBalance */\n      dup4\n        /* \"Switch.sol\":1136:1170  Sent(beneficiary, contractBalance) */\n      mload(0x40)\n      tag_52\n      swap2\n      swap1\n      tag_30\n      jump\t// in\n    tag_52:\n      mload(0x40)\n      dup1\n      swap2\n      sub\n      swap1\n      log2\n        /* \"Switch.sol\":792:1177  {... */\n      pop\n      pop\n        /* \"Switch.sol\":753:1177  function check_and_transfer() external {... */\n      jump\t// out\n        /* \"Switch.sol\":105:131  address public beneficiary */\n    tag_16:\n      0x01\n      0x00\n      swap1\n      sload\n      swap1\n      0x0100\n      exp\n      swap1\n      div\n      0xffffffffffffffffffffffffffffffffffffffff\n      and\n      dup2\n      jump\t// out\n        /* \"Switch.sol\":573:748  function still_alive() external {... */\n    tag_21:\n        /* \"Switch.sol\":637:642  owner */\n      0x00\n      dup1\n      sload\n      swap1\n      0x0100\n      exp\n      swap1\n      div\n      0xffffffffffffffffffffffffffffffffffffffff\n      and\n        /* \"Switch.sol\":623:642  msg.sender == owner */\n      0xffffffffffffffffffffffffffffffffffffffff\n      and\n        /* \"Switch.sol\":623:633  msg.sender */\n      caller\n        /* \"Switch.sol\":623:642  msg.sender == owner */\n      0xffffffffffffffffffffffffffffffffffffffff\n      and\n      eq\n        /* \"Switch.sol\":615:656  require(msg.sender == owner, \"for owner\") */\n      tag_54\n      jumpi\n      mload(0x40)\n      0x08c379a000000000000000000000000000000000000000000000000000000000\n      dup2\n      mstore\n      0x04\n      add\n      tag_55\n      swap1\n      tag_56\n      jump\t// in\n    tag_55:\n      mload(0x40)\n      dup1\n      swap2\n      sub\n      swap1\n      revert\n    tag_54:\n        /* \"Switch.sol\":683:695  block.number */\n      number\n        /* \"Switch.sol\":666:680  lastAliveBlock */\n      0x02\n        /* \"Switch.sol\":666:695  lastAliveBlock = block.number */\n      dup2\n      swap1\n      sstore\n      pop\n        /* \"Switch.sol\":721:726  owner */\n      0x00\n      dup1\n      sload\n      swap1\n      0x0100\n      exp\n      swap1\n      div\n      0xffffffffffffffffffffffffffffffffffffffff\n      and\n        /* \"Switch.sol\":710:741  StillAlive(owner, block.number) */\n      0xffffffffffffffffffffffffffffffffffffffff\n      and\n      0x2848a09e10fd454b1d234eaaed0a44c56f3966ae1a4c8bf74a32b48e94bb02e0\n        /* \"Switch.sol\":728:740  block.number */\n      number\n        /* \"Switch.sol\":710:741  StillAlive(owner, block.number) */\n      mload(0x40)\n      tag_57\n      swap2\n      swap1\n      tag_30\n      jump\t// in\n    tag_57:\n      mload(0x40)\n      dup1\n      swap2\n      sub\n      swap1\n      log2\n        /* \"Switch.sol\":573:748  function still_alive() external {... */\n      jump\t// out\n        /* \"Switch.sol\":79:99  address public owner */\n    tag_24:\n      0x00\n      dup1\n      sload\n      swap1\n      0x0100\n      exp\n      swap1\n      div\n      0xffffffffffffffffffffffffffffffffffffffff\n      and\n      dup2\n      jump\t// out\n        /* \"Switch.sol\":137:166  uint256 public lastAliveBlock */\n    tag_28:\n      sload(0x02)\n      dup2\n      jump\t// out\n        /* \"Switch.sol\":172:207  uint256 public thresholdBlocks = 10 */\n    tag_33:\n      sload(0x03)\n      dup2\n      jump\t// out\n        /* \"#utility.yul\":7:133   */\n    tag_58:\n        /* \"#utility.yul\":44:51   */\n      0x00\n        /* \"#utility.yul\":84:126   */\n      0xffffffffffffffffffffffffffffffffffffffff\n        /* \"#utility.yul\":77:82   */\n      dup3\n        /* \"#utility.yul\":73:127   */\n      and\n        /* \"#utility.yul\":62:127   */\n      swap1\n      pop\n        /* \"#utility.yul\":7:133   */\n      swap2\n      swap1\n      pop\n      jump\t// out\n        /* \"#utility.yul\":139:235   */\n    tag_59:\n        /* \"#utility.yul\":176:183   */\n      0x00\n        /* \"#utility.yul\":205:229   */\n      tag_79\n        /* \"#utility.yul\":223:228   */\n      dup3\n        /* \"#utility.yul\":205:229   */\n      tag_58\n      jump\t// in\n    tag_79:\n        /* \"#utility.yul\":194:229   */\n      swap1\n      pop\n        /* \"#utility.yul\":139:235   */\n      swap2\n      swap1\n      pop\n      jump\t// out\n        /* \"#utility.yul\":241:359   */\n    tag_60:\n        /* \"#utility.yul\":328:352   */\n      tag_81\n        /* \"#utility.yul\":346:351   */\n      dup2\n        /* \"#utility.yul\":328:352   */\n      tag_59\n      jump\t// in\n    tag_81:\n        /* \"#utility.yul\":323:326   */\n      dup3\n        /* \"#utility.yul\":316:353   */\n      mstore\n        /* \"#utility.yul\":241:359   */\n      pop\n      pop\n      jump\t// out\n        /* \"#utility.yul\":365:587   */\n    tag_18:\n        /* \"#utility.yul\":458:462   */\n      0x00\n        /* \"#utility.yul\":496:498   */\n      0x20\n        /* \"#utility.yul\":485:494   */\n      dup3\n        /* \"#utility.yul\":481:499   */\n      add\n        /* \"#utility.yul\":473:499   */\n      swap1\n      pop\n        /* \"#utility.yul\":509:580   */\n      tag_83\n        /* \"#utility.yul\":577:578   */\n      0x00\n        /* \"#utility.yul\":566:575   */\n      dup4\n        /* \"#utility.yul\":562:579   */\n      add\n        /* \"#utility.yul\":553:559   */\n      dup5\n        /* \"#utility.yul\":509:580   */\n      tag_60\n      jump\t// in\n    tag_83:\n        /* \"#utility.yul\":365:587   */\n      swap3\n      swap2\n      pop\n      pop\n      jump\t// out\n        /* \"#utility.yul\":593:670   */\n    tag_61:\n        /* \"#utility.yul\":630:637   */\n      0x00\n        /* \"#utility.yul\":659:664   */\n      dup2\n        /* \"#utility.yul\":648:664   */\n      swap1\n      pop\n        /* \"#utility.yul\":593:670   */\n      swap2\n      swap1\n      pop\n      jump\t// out\n        /* \"#utility.yul\":676:794   */\n    tag_62:\n        /* \"#utility.yul\":763:787   */\n      tag_86\n        /* \"#utility.yul\":781:786   */\n      dup2\n        /* \"#utility.yul\":763:787   */\n      tag_61\n      jump\t// in\n    tag_86:\n        /* \"#utility.yul\":758:761   */\n      dup3\n        /* \"#utility.yul\":751:788   */\n      mstore\n        /* \"#utility.yul\":676:794   */\n      pop\n      pop\n      jump\t// out\n        /* \"#utility.yul\":800:1022   */\n    tag_30:\n        /* \"#utility.yul\":893:897   */\n      0x00\n        /* \"#utility.yul\":931:933   */\n      0x20\n        /* \"#utility.yul\":920:929   */\n      dup3\n        /* \"#utility.yul\":916:934   */\n      add\n        /* \"#utility.yul\":908:934   */\n      swap1\n      pop\n        /* \"#utility.yul\":944:1015   */\n      tag_88\n        /* \"#utility.yul\":1012:1013   */\n      0x00\n        /* \"#utility.yul\":1001:1010   */\n      dup4\n        /* \"#utility.yul\":997:1014   */\n      add\n        /* \"#utility.yul\":988:994   */\n      dup5\n        /* \"#utility.yul\":944:1015   */\n      tag_62\n      jump\t// in\n    tag_88:\n        /* \"#utility.yul\":800:1022   */\n      swap3\n      swap2\n      pop\n      pop\n      jump\t// out\n        /* \"#utility.yul\":1028:1208   */\n    tag_63:\n        /* \"#utility.yul\":1076:1153   */\n      0x4e487b7100000000000000000000000000000000000000000000000000000000\n        /* \"#utility.yul\":1073:1074   */\n      0x00\n        /* \"#utility.yul\":1066:1154   */\n      mstore\n        /* \"#utility.yul\":1173:1177   */\n      0x11\n        /* \"#utility.yul\":1170:1171   */\n      0x04\n        /* \"#utility.yul\":1163:1178   */\n      mstore\n        /* \"#utility.yul\":1197:1201   */\n      0x24\n        /* \"#utility.yul\":1194:1195   */\n      0x00\n        /* \"#utility.yul\":1187:1202   */\n      revert\n        /* \"#utility.yul\":1214:1405   */\n    tag_37:\n        /* \"#utility.yul\":1254:1257   */\n      0x00\n        /* \"#utility.yul\":1273:1293   */\n      tag_91\n        /* \"#utility.yul\":1291:1292   */\n      dup3\n        /* \"#utility.yul\":1273:1293   */\n      tag_61\n      jump\t// in\n    tag_91:\n        /* \"#utility.yul\":1268:1293   */\n      swap2\n      pop\n        /* \"#utility.yul\":1307:1327   */\n      tag_92\n        /* \"#utility.yul\":1325:1326   */\n      dup4\n        /* \"#utility.yul\":1307:1327   */\n      tag_61\n      jump\t// in\n    tag_92:\n        /* \"#utility.yul\":1302:1327   */\n      swap3\n      pop\n        /* \"#utility.yul\":1350:1351   */\n      dup3\n        /* \"#utility.yul\":1347:1348   */\n      dup3\n        /* \"#utility.yul\":1343:1352   */\n      add\n        /* \"#utility.yul\":1336:1352   */\n      swap1\n      pop\n        /* \"#utility.yul\":1371:1374   */\n      dup1\n        /* \"#utility.yul\":1368:1369   */\n      dup3\n        /* \"#utility.yul\":1365:1375   */\n      gt\n        /* \"#utility.yul\":1362:1398   */\n      iszero\n      tag_93\n      jumpi\n        /* \"#utility.yul\":1378:1396   */\n      tag_94\n      tag_63\n      jump\t// in\n    tag_94:\n        /* \"#utility.yul\":1362:1398   */\n    tag_93:\n        /* \"#utility.yul\":1214:1405   */\n      swap3\n      swap2\n      pop\n      pop\n      jump\t// out\n        /* \"#utility.yul\":1411:1580   */\n    tag_64:\n        /* \"#utility.yul\":1495:1506   */\n      0x00\n        /* \"#utility.yul\":1529:1535   */\n      dup3\n        /* \"#utility.yul\":1524:1527   */\n      dup3\n        /* \"#utility.yul\":1517:1536   */\n      mstore\n        /* \"#utility.yul\":1569:1573   */\n      0x20\n        /* \"#utility.yul\":1564:1567   */\n      dup3\n        /* \"#utility.yul\":1560:1574   */\n      add\n        /* \"#utility.yul\":1545:1574   */\n      swap1\n      pop\n        /* \"#utility.yul\":1411:1580   */\n      swap3\n      swap2\n      pop\n      pop\n      jump\t// out\n        /* \"#utility.yul\":1586:1747   */\n    tag_65:\n        /* \"#utility.yul\":1726:1739   */\n      0x6f776e657220616c697665000000000000000000000000000000000000000000\n        /* \"#utility.yul\":1722:1723   */\n      0x00\n        /* \"#utility.yul\":1714:1720   */\n      dup3\n        /* \"#utility.yul\":1710:1724   */\n      add\n        /* \"#utility.yul\":1703:1740   */\n      mstore\n        /* \"#utility.yul\":1586:1747   */\n      pop\n      jump\t// out\n        /* \"#utility.yul\":1753:2119   */\n    tag_66:\n        /* \"#utility.yul\":1895:1898   */\n      0x00\n        /* \"#utility.yul\":1916:1983   */\n      tag_98\n        /* \"#utility.yul\":1980:1982   */\n      0x0b\n        /* \"#utility.yul\":1975:1978   */\n      dup4\n        /* \"#utility.yul\":1916:1983   */\n      tag_64\n      jump\t// in\n    tag_98:\n        /* \"#utility.yul\":1909:1983   */\n      swap2\n      pop\n        /* \"#utility.yul\":1992:2085   */\n      tag_99\n        /* \"#utility.yul\":2081:2084   */\n      dup3\n        /* \"#utility.yul\":1992:2085   */\n      tag_65\n      jump\t// in\n    tag_99:\n        /* \"#utility.yul\":2110:2112   */\n      0x20\n        /* \"#utility.yul\":2105:2108   */\n      dup3\n        /* \"#utility.yul\":2101:2113   */\n      add\n        /* \"#utility.yul\":2094:2113   */\n      swap1\n      pop\n        /* \"#utility.yul\":1753:2119   */\n      swap2\n      swap1\n      pop\n      jump\t// out\n        /* \"#utility.yul\":2125:2544   */\n    tag_40:\n        /* \"#utility.yul\":2291:2295   */\n      0x00\n        /* \"#utility.yul\":2329:2331   */\n      0x20\n        /* \"#utility.yul\":2318:2327   */\n      dup3\n        /* \"#utility.yul\":2314:2332   */\n      add\n        /* \"#utility.yul\":2306:2332   */\n      swap1\n      pop\n        /* \"#utility.yul\":2378:2387   */\n      dup2\n        /* \"#utility.yul\":2372:2376   */\n      dup2\n        /* \"#utility.yul\":2368:2388   */\n      sub\n        /* \"#utility.yul\":2364:2365   */\n      0x00\n        /* \"#utility.yul\":2353:2362   */\n      dup4\n        /* \"#utility.yul\":2349:2366   */\n      add\n        /* \"#utility.yul\":2342:2389   */\n      mstore\n        /* \"#utility.yul\":2406:2537   */\n      tag_101\n        /* \"#utility.yul\":2532:2536   */\n      dup2\n        /* \"#utility.yul\":2406:2537   */\n      tag_66\n      jump\t// in\n    tag_101:\n        /* \"#utility.yul\":2398:2537   */\n      swap1\n      pop\n        /* \"#utility.yul\":2125:2544   */\n      swap2\n      swap1\n      pop\n      jump\t// out\n        /* \"#utility.yul\":2550:2716   */\n    tag_67:\n        /* \"#utility.yul\":2690:2708   */\n      0x6e6f207472616e7366657220646f6e6500000000000000000000000000000000\n        /* \"#utility.yul\":2686:2687   */\n      0x00\n        /* \"#utility.yul\":2678:2684   */\n      dup3\n        /* \"#utility.yul\":2674:2688   */\n      add\n        /* \"#utility.yul\":2667:2709   */\n      mstore\n        /* \"#utility.yul\":2550:2716   */\n      pop\n      jump\t// out\n        /* \"#utility.yul\":2722:3088   */\n    tag_68:\n        /* \"#utility.yul\":2864:2867   */\n      0x00\n        /* \"#utility.yul\":2885:2952   */\n      tag_104\n        /* \"#utility.yul\":2949:2951   */\n      0x10\n        /* \"#utility.yul\":2944:2947   */\n      dup4\n        /* \"#utility.yul\":2885:2952   */\n      tag_64\n      jump\t// in\n    tag_104:\n        /* \"#utility.yul\":2878:2952   */\n      swap2\n      pop\n        /* \"#utility.yul\":2961:3054   */\n      tag_105\n        /* \"#utility.yul\":3050:3053   */\n      dup3\n        /* \"#utility.yul\":2961:3054   */\n      tag_67\n      jump\t// in\n    tag_105:\n        /* \"#utility.yul\":3079:3081   */\n      0x20\n        /* \"#utility.yul\":3074:3077   */\n      dup3\n        /* \"#utility.yul\":3070:3082   */\n      add\n        /* \"#utility.yul\":3063:3082   */\n      swap1\n      pop\n        /* \"#utility.yul\":2722:3088   */\n      swap2\n      swap1\n      pop\n      jump\t// out\n        /* \"#utility.yul\":3094:3513   */\n    tag_43:\n        /* \"#utility.yul\":3260:3264   */\n      0x00\n        /* \"#utility.yul\":3298:3300   */\n      0x20\n        /* \"#utility.yul\":3287:3296   */\n      dup3\n        /* \"#utility.yul\":3283:3301   */\n      add\n        /* \"#utility.yul\":3275:3301   */\n      swap1\n      pop\n        /* \"#utility.yul\":3347:3356   */\n      dup2\n        /* \"#utility.yul\":3341:3345   */\n      dup2\n        /* \"#utility.yul\":3337:3357   */\n      sub\n        /* \"#utility.yul\":3333:3334   */\n      0x00\n        /* \"#utility.yul\":3322:3331   */\n      dup4\n        /* \"#utility.yul\":3318:3335   */\n      add\n        /* \"#utility.yul\":3311:3358   */\n      mstore\n        /* \"#utility.yul\":3375:3506   */\n      tag_107\n        /* \"#utility.yul\":3501:3505   */\n      dup2\n        /* \"#utility.yul\":3375:3506   */\n      tag_68\n      jump\t// in\n    tag_107:\n        /* \"#utility.yul\":3367:3506   */\n      swap1\n      pop\n        /* \"#utility.yul\":3094:3513   */\n      swap2\n      swap1\n      pop\n      jump\t// out\n        /* \"#utility.yul\":3519:3666   */\n    tag_69:\n        /* \"#utility.yul\":3620:3631   */\n      0x00\n        /* \"#utility.yul\":3657:3660   */\n      dup2\n        /* \"#utility.yul\":3642:3660   */\n      swap1\n      pop\n        /* \"#utility.yul\":3519:3666   */\n      swap3\n      swap2\n      pop\n      pop\n      jump\t// out\n        /* \"#utility.yul\":3672:3786   */\n    tag_70:\n      pop\n      jump\t// out\n        /* \"#utility.yul\":3792:4190   */\n    tag_71:\n        /* \"#utility.yul\":3951:3954   */\n      0x00\n        /* \"#utility.yul\":3972:4055   */\n      tag_111\n        /* \"#utility.yul\":4053:4054   */\n      0x00\n        /* \"#utility.yul\":4048:4051   */\n      dup4\n        /* \"#utility.yul\":3972:4055   */\n      tag_69\n      jump\t// in\n    tag_111:\n        /* \"#utility.yul\":3965:4055   */\n      swap2\n      pop\n        /* \"#utility.yul\":4064:4157   */\n      tag_112\n        /* \"#utility.yul\":4153:4156   */\n      dup3\n        /* \"#utility.yul\":4064:4157   */\n      tag_70\n      jump\t// in\n    tag_112:\n        /* \"#utility.yul\":4182:4183   */\n      0x00\n        /* \"#utility.yul\":4177:4180   */\n      dup3\n        /* \"#utility.yul\":4173:4184   */\n      add\n        /* \"#utility.yul\":4166:4184   */\n      swap1\n      pop\n        /* \"#utility.yul\":3792:4190   */\n      swap2\n      swap1\n      pop\n      jump\t// out\n        /* \"#utility.yul\":4196:4575   */\n    tag_45:\n        /* \"#utility.yul\":4380:4383   */\n      0x00\n        /* \"#utility.yul\":4402:4549   */\n      tag_114\n        /* \"#utility.yul\":4545:4548   */\n      dup3\n        /* \"#utility.yul\":4402:4549   */\n      tag_71\n      jump\t// in\n    tag_114:\n        /* \"#utility.yul\":4395:4549   */\n      swap2\n      pop\n        /* \"#utility.yul\":4566:4569   */\n      dup2\n        /* \"#utility.yul\":4559:4569   */\n      swap1\n      pop\n        /* \"#utility.yul\":4196:4575   */\n      swap2\n      swap1\n      pop\n      jump\t// out\n        /* \"#utility.yul\":4581:4761   */\n    tag_72:\n        /* \"#utility.yul\":4721:4753   */\n      0x5472616e7366657220746f2062656e6566696369617279206661696c65640000\n        /* \"#utility.yul\":4717:4718   */\n      0x00\n        /* \"#utility.yul\":4709:4715   */\n      dup3\n        /* \"#utility.yul\":4705:4719   */\n      add\n        /* \"#utility.yul\":4698:4754   */\n      mstore\n        /* \"#utility.yul\":4581:4761   */\n      pop\n      jump\t// out\n        /* \"#utility.yul\":4767:5133   */\n    tag_73:\n        /* \"#utility.yul\":4909:4912   */\n      0x00\n        /* \"#utility.yul\":4930:4997   */\n      tag_117\n        /* \"#utility.yul\":4994:4996   */\n      0x1e\n        /* \"#utility.yul\":4989:4992   */\n      dup4\n        /* \"#utility.yul\":4930:4997   */\n      tag_64\n      jump\t// in\n    tag_117:\n        /* \"#utility.yul\":4923:4997   */\n      swap2\n      pop\n        /* \"#utility.yul\":5006:5099   */\n      tag_118\n        /* \"#utility.yul\":5095:5098   */\n      dup3\n        /* \"#utility.yul\":5006:5099   */\n      tag_72\n      jump\t// in\n    tag_118:\n        /* \"#utility.yul\":5124:5126   */\n      0x20\n        /* \"#utility.yul\":5119:5122   */\n      dup3\n        /* \"#utility.yul\":5115:5127   */\n      add\n        /* \"#utility.yul\":5108:5127   */\n      swap1\n      pop\n        /* \"#utility.yul\":4767:5133   */\n      swap2\n      swap1\n      pop\n      jump\t// out\n        /* \"#utility.yul\":5139:5558   */\n    tag_51:\n        /* \"#utility.yul\":5305:5309   */\n      0x00\n        /* \"#utility.yul\":5343:5345   */\n      0x20\n        /* \"#utility.yul\":5332:5341   */\n      dup3\n        /* \"#utility.yul\":5328:5346   */\n      add\n        /* \"#utility.yul\":5320:5346   */\n      swap1\n      pop\n        /* \"#utility.yul\":5392:5401   */\n      dup2\n        /* \"#utility.yul\":5386:5390   */\n      dup2\n        /* \"#utility.yul\":5382:5402   */\n      sub\n        /* \"#utility.yul\":5378:5379   */\n      0x00\n        /* \"#utility.yul\":5367:5376   */\n      dup4\n        /* \"#utility.yul\":5363:5380   */\n      add\n        /* \"#utility.yul\":5356:5403   */\n      mstore\n        /* \"#utility.yul\":5420:5551   */\n      tag_120\n        /* \"#utility.yul\":5546:5550   */\n      dup2\n        /* \"#utility.yul\":5420:5551   */\n      tag_73\n      jump\t// in\n    tag_120:\n        /* \"#utility.yul\":5412:5551   */\n      swap1\n      pop\n        /* \"#utility.yul\":5139:5558   */\n      swap2\n      swap1\n      pop\n      jump\t// out\n        /* \"#utility.yul\":5564:5723   */\n    tag_74:\n        /* \"#utility.yul\":5704:5715   */\n      0x666f72206f776e65720000000000000000000000000000000000000000000000\n        /* \"#utility.yul\":5700:5701   */\n      0x00\n        /* \"#utility.yul\":5692:5698   */\n      dup3\n        /* \"#utility.yul\":5688:5702   */\n      add\n        /* \"#utility.yul\":5681:5716   */\n      mstore\n        /* \"#utility.yul\":5564:5723   */\n      pop\n      jump\t// out\n        /* \"#utility.yul\":5729:6094   */\n    tag_75:\n        /* \"#utility.yul\":5871:5874   */\n      0x00\n        /* \"#utility.yul\":5892:5958   */\n      tag_123\n        /* \"#utility.yul\":5956:5957   */\n      0x09\n        /* \"#utility.yul\":5951:5954   */\n      dup4\n        /* \"#utility.yul\":5892:5958   */\n      tag_64\n      jump\t// in\n    tag_123:\n        /* \"#utility.yul\":5885:5958   */\n      swap2\n      pop\n        /* \"#utility.yul\":5967:6060   */\n      tag_124\n        /* \"#utility.yul\":6056:6059   */\n      dup3\n        /* \"#utility.yul\":5967:6060   */\n      tag_74\n      jump\t// in\n    tag_124:\n        /* \"#utility.yul\":6085:6087   */\n      0x20\n        /* \"#utility.yul\":6080:6083   */\n      dup3\n        /* \"#utility.yul\":6076:6088   */\n      add\n        /* \"#utility.yul\":6069:6088   */\n      swap1\n      pop\n        /* \"#utility.yul\":5729:6094   */\n      swap2\n      swap1\n      pop\n      jump\t// out\n        /* \"#utility.yul\":6100:6519   */\n    tag_56:\n        /* \"#utility.yul\":6266:6270   */\n      0x00\n        /* \"#utility.yul\":6304:6306   */\n      0x20\n        /* \"#utility.yul\":6293:6302   */\n      dup3\n        /* \"#utility.yul\":6289:6307   */\n      add\n        /* \"#utility.yul\":6281:6307   */\n      swap1\n      pop\n        /* \"#utility.yul\":6353:6362   */\n      dup2\n        /* \"#utility.yul\":6347:6351   */\n      dup2\n        /* \"#utility.yul\":6343:6363   */\n      sub\n        /* \"#utility.yul\":6339:6340   */\n      0x00\n        /* \"#utility.yul\":6328:6337   */\n      dup4\n        /* \"#utility.yul\":6324:6341   */\n      add\n        /* \"#utility.yul\":6317:6364   */\n      mstore\n        /* \"#utility.yul\":6381:6512   */\n      tag_126\n        /* \"#utility.yul\":6507:6511   */\n      dup2\n        /* \"#utility.yul\":6381:6512   */\n      tag_75\n      jump\t// in\n    tag_126:\n        /* \"#utility.yul\":6373:6512   */\n      swap1\n      pop\n        /* \"#utility.yul\":6100:6519   */\n      swap2\n      swap1\n      pop\n      jump\t// out\n\n    auxdata: 0xa264697066735822122048d32ad8deb6252e62fec04f9451525724232cb7cd46b2a280d56ad2d0e235df64736f6c634300081a0033\n}\n",
				"bytecode": {
					"linkReferences": {},
					"object": "6080604052600a600355348015610014575f80fd5b506040516109d53803806109d58339818101604052810190610036919061018e565b5f73ffffffffffffffffffffffffffffffffffffffff168173ffffffffffffffffffffffffffffffffffffffff16036100a4576040517f08c379a000000000000000000000000000000000000000000000000000000000815260040161009b90610239565b60405180910390fd5b335f806101000a81548173ffffffffffffffffffffffffffffffffffffffff021916908373ffffffffffffffffffffffffffffffffffffffff1602179055508060015f6101000a81548173ffffffffffffffffffffffffffffffffffffffff021916908373ffffffffffffffffffffffffffffffffffffffff1602179055504360028190555050610257565b5f80fd5b5f73ffffffffffffffffffffffffffffffffffffffff82169050919050565b5f61015d82610134565b9050919050565b61016d81610153565b8114610177575f80fd5b50565b5f8151905061018881610164565b92915050565b5f602082840312156101a3576101a2610130565b5b5f6101b08482850161017a565b91505092915050565b5f82825260208201905092915050565b7f42656e656669636961727920616464726573732063616e6e6f74206265207a655f8201527f726f000000000000000000000000000000000000000000000000000000000000602082015250565b5f6102236022836101b9565b915061022e826101c9565b604082019050919050565b5f6020820190508181035f83015261025081610217565b9050919050565b610771806102645f395ff3fe608060405260043610610058575f3560e01c80630f50a7e91461006357806338af3eed146100795780633d58225a146100a35780638da5cb5b146100b9578063e6627db6146100e3578063eec93f091461010d5761005f565b3661005f57005b5f80fd5b34801561006e575f80fd5b50610077610137565b005b348015610084575f80fd5b5061008d61030a565b60405161009a91906104a0565b60405180910390f35b3480156100ae575f80fd5b506100b761032f565b005b3480156100c4575f80fd5b506100cd610432565b6040516100da91906104a0565b60405180910390f35b3480156100ee575f80fd5b506100f7610455565b60405161010491906104d1565b60405180910390f35b348015610118575f80fd5b5061012161045b565b60405161012e91906104d1565b60405180910390f35b6003546002546101479190610517565b4311610188576040517f08c379a000000000000000000000000000000000000000000000000000000000815260040161017f906105a4565b60405180910390fd5b5f4790505f81116101ce576040517f08c379a00000000000000000000000000000000000000000000000000000000081526004016101c59061060c565b60405180910390fd5b5f60015f9054906101000a900473ffffffffffffffffffffffffffffffffffffffff1673ffffffffffffffffffffffffffffffffffffffff168260405161021490610657565b5f6040518083038185875af1925050503d805f811461024e576040519150601f19603f3d011682016040523d82523d5f602084013e610253565b606091505b5050905080610297576040517f08c379a000000000000000000000000000000000000000000000000000000000815260040161028e906106b5565b60405180910390fd5b60015f9054906101000a900473ffffffffffffffffffffffffffffffffffffffff1673ffffffffffffffffffffffffffffffffffffffff167f510ffb4dcab972ae9d2007a58e13f1b0881776d23cd8f5cc32f8c5be2dbf70d2836040516102fe91906104d1565b60405180910390a25050565b60015f9054906101000a900473ffffffffffffffffffffffffffffffffffffffff1681565b5f8054906101000a900473ffffffffffffffffffffffffffffffffffffffff1673ffffffffffffffffffffffffffffffffffffffff163373ffffffffffffffffffffffffffffffffffffffff16146103bc576040517f08c379a00000000000000000000000000000000000000000000000000000000081526004016103b39061071d565b60405180910390fd5b436002819055505f8054906101000a900473ffffffffffffffffffffffffffffffffffffffff1673ffffffffffffffffffffffffffffffffffffffff167f2848a09e10fd454b1d234eaaed0a44c56f3966ae1a4c8bf74a32b48e94bb02e04360405161042891906104d1565b60405180910390a2565b5f8054906101000a900473ffffffffffffffffffffffffffffffffffffffff1681565b60025481565b60035481565b5f73ffffffffffffffffffffffffffffffffffffffff82169050919050565b5f61048a82610461565b9050919050565b61049a81610480565b82525050565b5f6020820190506104b35f830184610491565b92915050565b5f819050919050565b6104cb816104b9565b82525050565b5f6020820190506104e45f8301846104c2565b92915050565b7f4e487b71000000000000000000000000000000000000000000000000000000005f52601160045260245ffd5b5f610521826104b9565b915061052c836104b9565b9250828201905080821115610544576105436104ea565b5b92915050565b5f82825260208201905092915050565b7f6f776e657220616c6976650000000000000000000000000000000000000000005f82015250565b5f61058e600b8361054a565b91506105998261055a565b602082019050919050565b5f6020820190508181035f8301526105bb81610582565b9050919050565b7f6e6f207472616e7366657220646f6e65000000000000000000000000000000005f82015250565b5f6105f660108361054a565b9150610601826105c2565b602082019050919050565b5f6020820190508181035f830152610623816105ea565b9050919050565b5f81905092915050565b50565b5f6106425f8361062a565b915061064d82610634565b5f82019050919050565b5f61066182610637565b9150819050919050565b7f5472616e7366657220746f2062656e6566696369617279206661696c656400005f82015250565b5f61069f601e8361054a565b91506106aa8261066b565b602082019050919050565b5f6020820190508181035f8301526106cc81610693565b9050919050565b7f666f72206f776e657200000000000000000000000000000000000000000000005f82015250565b5f61070760098361054a565b9150610712826106d3565b602082019050919050565b5f6020820190508181035f830152610734816106fb565b905091905056fea264697066735822122048d32ad8deb6252e62fec04f9451525724232cb7cd46b2a280d56ad2d0e235df64736f6c634300081a0033",
					"opcodes": "PUSH1 0x80 PUSH1 0x40 MSTORE PUSH1 0xA PUSH1 0x3 SSTORE CALLVALUE DUP1 ISZERO PUSH2 0x14 JUMPI PUSH0 DUP1 REVERT JUMPDEST POP PUSH1 0x40 MLOAD PUSH2 0x9D5 CODESIZE SUB DUP1 PUSH2 0x9D5 DUP4 CODECOPY DUP2 DUP2 ADD PUSH1 0x40 MSTORE DUP2 ADD SWAP1 PUSH2 0x36 SWAP2 SWAP1 PUSH2 0x18E JUMP JUMPDEST PUSH0 PUSH20 0xFFFFFFFFFFFFFFFFFFFFFFFFFFFFFFFFFFFFFFFF AND DUP2 PUSH20 0xFFFFFFFFFFFFFFFFFFFFFFFFFFFFFFFFFFFFFFFF AND SUB PUSH2 0xA4 JUMPI PUSH1 0x40 MLOAD PUSH32 0x8C379A000000000000000000000000000000000000000000000000000000000 DUP2 MSTORE PUSH1 0x4 ADD PUSH2 0x9B SWAP1 PUSH2 0x239 JUMP JUMPDEST PUSH1 0x40 MLOAD DUP1 SWAP2 SUB SWAP1 REVERT JUMPDEST CALLER PUSH0 DUP1 PUSH2 0x100 EXP DUP2 SLOAD DUP2 PUSH20 0xFFFFFFFFFFFFFFFFFFFFFFFFFFFFFFFFFFFFFFFF MUL NOT AND SWAP1 DUP4 PUSH20 0xFFFFFFFFFFFFFFFFFFFFFFFFFFFFFFFFFFFFFFFF AND MUL OR SWAP1 SSTORE POP DUP1 PUSH1 0x1 PUSH0 PUSH2 0x100 EXP DUP2 SLOAD DUP2 PUSH20 0xFFFFFFFFFFFFFFFFFFFFFFFFFFFFFFFFFFFFFFFF MUL NOT AND SWAP1 DUP4 PUSH20 0xFFFFFFFFFFFFFFFFFFFFFFFFFFFFFFFFFFFFFFFF AND MUL OR SWAP1 SSTORE POP NUMBER PUSH1 0x2 DUP2 SWAP1 SSTORE POP POP PUSH2 0x257 JUMP JUMPDEST PUSH0 DUP1 REVERT JUMPDEST PUSH0 PUSH20 0xFFFFFFFFFFFFFFFFFFFFFFFFFFFFFFFFFFFFFFFF DUP3 AND SWAP1 POP SWAP2 SWAP1 POP JUMP JUMPDEST PUSH0 PUSH2 0x15D DUP3 PUSH2 0x134 JUMP JUMPDEST SWAP1 POP SWAP2 SWAP1 POP JUMP JUMPDEST PUSH2 0x16D DUP2 PUSH2 0x153 JUMP JUMPDEST DUP2 EQ PUSH2 0x177 JUMPI PUSH0 DUP1 REVERT JUMPDEST POP JUMP JUMPDEST PUSH0 DUP2 MLOAD SWAP1 POP PUSH2 0x188 DUP2 PUSH2 0x164 JUMP JUMPDEST SWAP3 SWAP2 POP POP JUMP JUMPDEST PUSH0 PUSH1 0x20 DUP3 DUP5 SUB SLT ISZERO PUSH2 0x1A3 JUMPI PUSH2 0x1A2 PUSH2 0x130 JUMP JUMPDEST JUMPDEST PUSH0 PUSH2 0x1B0 DUP5 DUP3 DUP6 ADD PUSH2 0x17A JUMP JUMPDEST SWAP2 POP POP SWAP3 SWAP2 POP POP JUMP JUMPDEST PUSH0 DUP3 DUP3 MSTORE PUSH1 0x20 DUP3 ADD SWAP1 POP SWAP3 SWAP2 POP POP JUMP JUMPDEST PUSH32 0x42656E656669636961727920616464726573732063616E6E6F74206265207A65 PUSH0 DUP3 ADD MSTORE PUSH32 0x726F000000000000000000000000000000000000000000000000000000000000 PUSH1 0x20 DUP3 ADD MSTORE POP JUMP JUMPDEST PUSH0 PUSH2 0x223 PUSH1 0x22 DUP4 PUSH2 0x1B9 JUMP JUMPDEST SWAP2 POP PUSH2 0x22E DUP3 PUSH2 0x1C9 JUMP JUMPDEST PUSH1 0x40 DUP3 ADD SWAP1 POP SWAP2 SWAP1 POP JUMP JUMPDEST PUSH0 PUSH1 0x20 DUP3 ADD SWAP1 POP DUP2 DUP2 SUB PUSH0 DUP4 ADD MSTORE PUSH2 0x250 DUP2 PUSH2 0x217 JUMP JUMPDEST SWAP1 POP SWAP2 SWAP1 POP JUMP JUMPDEST PUSH2 0x771 DUP1 PUSH2 0x264 PUSH0 CODECOPY PUSH0 RETURN INVALID PUSH1 0x80 PUSH1 0x40 MSTORE PUSH1 0x4 CALLDATASIZE LT PUSH2 0x58 JUMPI PUSH0 CALLDATALOAD PUSH1 0xE0 SHR DUP1 PUSH4 0xF50A7E9 EQ PUSH2 0x63 JUMPI DUP1 PUSH4 0x38AF3EED EQ PUSH2 0x79 JUMPI DUP1 PUSH4 0x3D58225A EQ PUSH2 0xA3 JUMPI DUP1 PUSH4 0x8DA5CB5B EQ PUSH2 0xB9 JUMPI DUP1 PUSH4 0xE6627DB6 EQ PUSH2 0xE3 JUMPI DUP1 PUSH4 0xEEC93F09 EQ PUSH2 0x10D JUMPI PUSH2 0x5F JUMP JUMPDEST CALLDATASIZE PUSH2 0x5F JUMPI STOP JUMPDEST PUSH0 DUP1 REVERT JUMPDEST CALLVALUE DUP1 ISZERO PUSH2 0x6E JUMPI PUSH0 DUP1 REVERT JUMPDEST POP PUSH2 0x77 PUSH2 0x137 JUMP JUMPDEST STOP JUMPDEST CALLVALUE DUP1 ISZERO PUSH2 0x84 JUMPI PUSH0 DUP1 REVERT JUMPDEST POP PUSH2 0x8D PUSH2 0x30A JUMP JUMPDEST PUSH1 0x40 MLOAD PUSH2 0x9A SWAP2 SWAP1 PUSH2 0x4A0 JUMP JUMPDEST PUSH1 0x40 MLOAD DUP1 SWAP2 SUB SWAP1 RETURN JUMPDEST CALLVALUE DUP1 ISZERO PUSH2 0xAE JUMPI PUSH0 DUP1 REVERT JUMPDEST POP PUSH2 0xB7 PUSH2 0x32F JUMP JUMPDEST STOP JUMPDEST CALLVALUE DUP1 ISZERO PUSH2 0xC4 JUMPI PUSH0 DUP1 REVERT JUMPDEST POP PUSH2 0xCD PUSH2 0x432 JUMP JUMPDEST PUSH1 0x40 MLOAD PUSH2 0xDA SWAP2 SWAP1 PUSH2 0x4A0 JUMP JUMPDEST PUSH1 0x40 MLOAD DUP1 SWAP2 SUB SWAP1 RETURN JUMPDEST CALLVALUE DUP1 ISZERO PUSH2 0xEE JUMPI PUSH0 DUP1 REVERT JUMPDEST POP PUSH2 0xF7 PUSH2 0x455 JUMP JUMPDEST PUSH1 0x40 MLOAD PUSH2 0x104 SWAP2 SWAP1 PUSH2 0x4D1 JUMP JUMPDEST PUSH1 0x40 MLOAD DUP1 SWAP2 SUB SWAP1 RETURN JUMPDEST CALLVALUE DUP1 ISZERO PUSH2 0x118 JUMPI PUSH0 DUP1 REVERT JUMPDEST POP PUSH2 0x121 PUSH2 0x45B JUMP JUMPDEST PUSH1 0x40 MLOAD PUSH2 0x12E SWAP2 SWAP1 PUSH2 0x4D1 JUMP JUMPDEST PUSH1 0x40 MLOAD DUP1 SWAP2 SUB SWAP1 RETURN JUMPDEST PUSH1 0x3 SLOAD PUSH1 0x2 SLOAD PUSH2 0x147 SWAP2 SWAP1 PUSH2 0x517 JUMP JUMPDEST NUMBER GT PUSH2 0x188 JUMPI PUSH1 0x40 MLOAD PUSH32 0x8C379A000000000000000000000000000000000000000000000000000000000 DUP2 MSTORE PUSH1 0x4 ADD PUSH2 0x17F SWAP1 PUSH2 0x5A4 JUMP JUMPDEST PUSH1 0x40 MLOAD DUP1 SWAP2 SUB SWAP1 REVERT JUMPDEST PUSH0 SELFBALANCE SWAP1 POP PUSH0 DUP2 GT PUSH2 0x1CE JUMPI PUSH1 0x40 MLOAD PUSH32 0x8C379A000000000000000000000000000000000000000000000000000000000 DUP2 MSTORE PUSH1 0x4 ADD PUSH2 0x1C5 SWAP1 PUSH2 0x60C JUMP JUMPDEST PUSH1 0x40 MLOAD DUP1 SWAP2 SUB SWAP1 REVERT JUMPDEST PUSH0 PUSH1 0x1 PUSH0 SWAP1 SLOAD SWAP1 PUSH2 0x100 EXP SWAP1 DIV PUSH20 0xFFFFFFFFFFFFFFFFFFFFFFFFFFFFFFFFFFFFFFFF AND PUSH20 0xFFFFFFFFFFFFFFFFFFFFFFFFFFFFFFFFFFFFFFFF AND DUP3 PUSH1 0x40 MLOAD PUSH2 0x214 SWAP1 PUSH2 0x657 JUMP JUMPDEST PUSH0 PUSH1 0x40 MLOAD DUP1 DUP4 SUB DUP2 DUP6 DUP8 GAS CALL SWAP3 POP POP POP RETURNDATASIZE DUP1 PUSH0 DUP2 EQ PUSH2 0x24E JUMPI PUSH1 0x40 MLOAD SWAP2 POP PUSH1 0x1F NOT PUSH1 0x3F RETURNDATASIZE ADD AND DUP3 ADD PUSH1 0x40 MSTORE RETURNDATASIZE DUP3 MSTORE RETURNDATASIZE PUSH0 PUSH1 0x20 DUP5 ADD RETURNDATACOPY PUSH2 0x253 JUMP JUMPDEST PUSH1 0x60 SWAP2 POP JUMPDEST POP POP SWAP1 POP DUP1 PUSH2 0x297 JUMPI PUSH1 0x40 MLOAD PUSH32 0x8C379A000000000000000000000000000000000000000000000000000000000 DUP2 MSTORE PUSH1 0x4 ADD PUSH2 0x28E SWAP1 PUSH2 0x6B5 JUMP JUMPDEST PUSH1 0x40 MLOAD DUP1 SWAP2 SUB SWAP1 REVERT JUMPDEST PUSH1 0x1 PUSH0 SWAP1 SLOAD SWAP1 PUSH2 0x100 EXP SWAP1 DIV PUSH20 0xFFFFFFFFFFFFFFFFFFFFFFFFFFFFFFFFFFFFFFFF AND PUSH20 0xFFFFFFFFFFFFFFFFFFFFFFFFFFFFFFFFFFFFFFFF AND PUSH32 0x510FFB4DCAB972AE9D2007A58E13F1B0881776D23CD8F5CC32F8C5BE2DBF70D2 DUP4 PUSH1 0x40 MLOAD PUSH2 0x2FE SWAP2 SWAP1 PUSH2 0x4D1 JUMP JUMPDEST PUSH1 0x40 MLOAD DUP1 SWAP2 SUB SWAP1 LOG2 POP POP JUMP JUMPDEST PUSH1 0x1 PUSH0 SWAP1 SLOAD SWAP1 PUSH2 0x100 EXP SWAP1 DIV PUSH20 0xFFFFFFFFFFFFFFFFFFFFFFFFFFFFFFFFFFFFFFFF AND DUP2 JUMP JUMPDEST PUSH0 DUP1 SLOAD SWAP1 PUSH2 0x100 EXP SWAP1 DIV PUSH20 0xFFFFFFFFFFFFFFFFFFFFFFFFFFFFFFFFFFFFFFFF AND PUSH20 0xFFFFFFFFFFFFFFFFFFFFFFFFFFFFFFFFFFFFFFFF AND CALLER PUSH20 0xFFFFFFFFFFFFFFFFFFFFFFFFFFFFFFFFFFFFFFFF AND EQ PUSH2 0x3BC JUMPI PUSH1 0x40 MLOAD PUSH32 0x8C379A000000000000000000000000000000000000000000000000000000000 DUP2 MSTORE PUSH1 0x4 ADD PUSH2 0x3B3 SWAP1 PUSH2 0x71D JUMP JUMPDEST PUSH1 0x40 MLOAD DUP1 SWAP2 SUB SWAP1 REVERT JUMPDEST NUMBER PUSH1 0x2 DUP2 SWAP1 SSTORE POP PUSH0 DUP1 SLOAD SWAP1 PUSH2 0x100 EXP SWAP1 DIV PUSH20 0xFFFFFFFFFFFFFFFFFFFFFFFFFFFFFFFFFFFFFFFF AND PUSH20 0xFFFFFFFFFFFFFFFFFFFFFFFFFFFFFFFFFFFFFFFF AND PUSH32 0x2848A09E10FD454B1D234EAAED0A44C56F3966AE1A4C8BF74A32B48E94BB02E0 NUMBER PUSH1 0x40 MLOAD PUSH2 0x428 SWAP2 SWAP1 PUSH2 0x4D1 JUMP JUMPDEST PUSH1 0x40 MLOAD DUP1 SWAP2 SUB SWAP1 LOG2 JUMP JUMPDEST PUSH0 DUP1 SLOAD SWAP1 PUSH2 0x100 EXP SWAP1 DIV PUSH20 0xFFFFFFFFFFFFFFFFFFFFFFFFFFFFFFFFFFFFFFFF AND DUP2 JUMP JUMPDEST PUSH1 0x2 SLOAD DUP2 JUMP JUMPDEST PUSH1 0x3 SLOAD DUP2 JUMP JUMPDEST PUSH0 PUSH20 0xFFFFFFFFFFFFFFFFFFFFFFFFFFFFFFFFFFFFFFFF DUP3 AND SWAP1 POP SWAP2 SWAP1 POP JUMP JUMPDEST PUSH0 PUSH2 0x48A DUP3 PUSH2 0x461 JUMP JUMPDEST SWAP1 POP SWAP2 SWAP1 POP JUMP JUMPDEST PUSH2 0x49A DUP2 PUSH2 0x480 JUMP JUMPDEST DUP3 MSTORE POP POP JUMP JUMPDEST PUSH0 PUSH1 0x20 DUP3 ADD SWAP1 POP PUSH2 0x4B3 PUSH0 DUP4 ADD DUP5 PUSH2 0x491 JUMP JUMPDEST SWAP3 SWAP2 POP POP JUMP JUMPDEST PUSH0 DUP2 SWAP1 POP SWAP2 SWAP1 POP JUMP JUMPDEST PUSH2 0x4CB DUP2 PUSH2 0x4B9 JUMP JUMPDEST DUP3 MSTORE POP POP JUMP JUMPDEST PUSH0 PUSH1 0x20 DUP3 ADD SWAP1 POP PUSH2 0x4E4 PUSH0 DUP4 ADD DUP5 PUSH2 0x4C2 JUMP JUMPDEST SWAP3 SWAP2 POP POP JUMP JUMPDEST PUSH32 0x4E487B7100000000000000000000000000000000000000000000000000000000 PUSH0 MSTORE PUSH1 0x11 PUSH1 0x4 MSTORE PUSH1 0x24 PUSH0 REVERT JUMPDEST PUSH0 PUSH2 0x521 DUP3 PUSH2 0x4B9 JUMP JUMPDEST SWAP2 POP PUSH2 0x52C DUP4 PUSH2 0x4B9 JUMP JUMPDEST SWAP3 POP DUP3 DUP3 ADD SWAP1 POP DUP1 DUP3 GT ISZERO PUSH2 0x544 JUMPI PUSH2 0x543 PUSH2 0x4EA JUMP JUMPDEST JUMPDEST SWAP3 SWAP2 POP POP JUMP JUMPDEST PUSH0 DUP3 DUP3 MSTORE PUSH1 0x20 DUP3 ADD SWAP1 POP SWAP3 SWAP2 POP POP JUMP JUMPDEST PUSH32 0x6F776E657220616C697665000000000000000000000000000000000000000000 PUSH0 DUP3 ADD MSTORE POP JUMP JUMPDEST PUSH0 PUSH2 0x58E PUSH1 0xB DUP4 PUSH2 0x54A JUMP JUMPDEST SWAP2 POP PUSH2 0x599 DUP3 PUSH2 0x55A JUMP JUMPDEST PUSH1 0x20 DUP3 ADD SWAP1 POP SWAP2 SWAP1 POP JUMP JUMPDEST PUSH0 PUSH1 0x20 DUP3 ADD SWAP1 POP DUP2 DUP2 SUB PUSH0 DUP4 ADD MSTORE PUSH2 0x5BB DUP2 PUSH2 0x582 JUMP JUMPDEST SWAP1 POP SWAP2 SWAP1 POP JUMP JUMPDEST PUSH32 0x6E6F207472616E7366657220646F6E6500000000000000000000000000000000 PUSH0 DUP3 ADD MSTORE POP JUMP JUMPDEST PUSH0 PUSH2 0x5F6 PUSH1 0x10 DUP4 PUSH2 0x54A JUMP JUMPDEST SWAP2 POP PUSH2 0x601 DUP3 PUSH2 0x5C2 JUMP JUMPDEST PUSH1 0x20 DUP3 ADD SWAP1 POP SWAP2 SWAP1 POP JUMP JUMPDEST PUSH0 PUSH1 0x20 DUP3 ADD SWAP1 POP DUP2 DUP2 SUB PUSH0 DUP4 ADD MSTORE PUSH2 0x623 DUP2 PUSH2 0x5EA JUMP JUMPDEST SWAP1 POP SWAP2 SWAP1 POP JUMP JUMPDEST PUSH0 DUP2 SWAP1 POP SWAP3 SWAP2 POP POP JUMP JUMPDEST POP JUMP JUMPDEST PUSH0 PUSH2 0x642 PUSH0 DUP4 PUSH2 0x62A JUMP JUMPDEST SWAP2 POP PUSH2 0x64D DUP3 PUSH2 0x634 JUMP JUMPDEST PUSH0 DUP3 ADD SWAP1 POP SWAP2 SWAP1 POP JUMP JUMPDEST PUSH0 PUSH2 0x661 DUP3 PUSH2 0x637 JUMP JUMPDEST SWAP2 POP DUP2 SWAP1 POP SWAP2 SWAP1 POP JUMP JUMPDEST PUSH32 0x5472616E7366657220746F2062656E6566696369617279206661696C65640000 PUSH0 DUP3 ADD MSTORE POP JUMP JUMPDEST PUSH0 PUSH2 0x69F PUSH1 0x1E DUP4 PUSH2 0x54A JUMP JUMPDEST SWAP2 POP PUSH2 0x6AA DUP3 PUSH2 0x66B JUMP JUMPDEST PUSH1 0x20 DUP3 ADD SWAP1 POP SWAP2 SWAP1 POP JUMP JUMPDEST PUSH0 PUSH1 0x20 DUP3 ADD SWAP1 POP DUP2 DUP2 SUB PUSH0 DUP4 ADD MSTORE PUSH2 0x6CC DUP2 PUSH2 0x693 JUMP JUMPDEST SWAP1 POP SWAP2 SWAP1 POP JUMP JUMPDEST PUSH32 0x666F72206F776E65720000000000000000000000000000000000000000000000 PUSH0 DUP3 ADD MSTORE POP JUMP JUMPDEST PUSH0 PUSH2 0x707 PUSH1 0x9 DUP4 PUSH2 0x54A JUMP JUMPDEST SWAP2 POP PUSH2 0x712 DUP3 PUSH2 0x6D3 JUMP JUMPDEST PUSH1 0x20 DUP3 ADD SWAP1 POP SWAP2 SWAP1 POP JUMP JUMPDEST PUSH0 PUSH1 0x20 DUP3 ADD SWAP1 POP DUP2 DUP2 SUB PUSH0 DUP4 ADD MSTORE PUSH2 0x734 DUP2 PUSH2 0x6FB JUMP JUMPDEST SWAP1 POP SWAP2 SWAP1 POP JUMP INVALID LOG2 PUSH5 0x6970667358 0x22 SLT KECCAK256 BASEFEE 0xD3 0x2A 0xD8 0xDE 0xB6 0x25 0x2E PUSH3 0xFEC04F SWAP5 MLOAD MSTORE JUMPI 0x24 0x23 0x2C 0xB7 0xCD CHAINID 0xB2 LOG2 DUP1 0xD5 PUSH11 0xD2D0E235DF64736F6C6343 STOP ADDMOD BYTE STOP CALLER "
				},
				"gasEstimates": {
					"creation": {
						"codeDepositCost": "381000",
						"executionCost": "infinite",
						"totalCost": "infinite"
					},
					"external": {
						"beneficiary()": "2508",
						"check_and_transfer()": "infinite",
						"lastAliveBlock()": "2491",
						"owner()": "2549",
						"still_alive()": "28147",
						"thresholdBlocks()": "2513"
					}
				},
				"methodIdentifiers": {
					"beneficiary()": "38af3eed",
					"check_and_transfer()": "0f50a7e9",
					"lastAliveBlock()": "e6627db6",
					"owner()": "8da5cb5b",
					"still_alive()": "3d58225a",
					"thresholdBlocks()": "eec93f09"
				}
			},
			"storageLayout": {
				"storage": [
					{
						"astId": 3,
						"contract": "Switch.sol:Switch",
						"label": "owner",
						"offset": 0,
						"slot": "0",
						"type": "t_address"
					},
					{
						"astId": 5,
						"contract": "Switch.sol:Switch",
						"label": "beneficiary",
						"offset": 0,
						"slot": "1",
						"type": "t_address"
					},
					{
						"astId": 7,
						"contract": "Switch.sol:Switch",
						"label": "lastAliveBlock",
						"offset": 0,
						"slot": "2",
						"type": "t_uint256"
					},
					{
						"astId": 10,
						"contract": "Switch.sol:Switch",
						"label": "thresholdBlocks",
						"offset": 0,
						"slot": "3",
						"type": "t_uint256"
					}
				],
				"types": {
					"t_address": {
						"encoding": "inplace",
						"label": "address",
						"numberOfBytes": "20"
					},
					"t_uint256": {
						"encoding": "inplace",
						"label": "uint256",
						"numberOfBytes": "32"
					}
				}
			},
			"userdoc": {
				"kind": "user",
				"methods": {},
				"version": 1
			}
		}
	}
}